:020000040000fa
:080000000002040000000000f2
:020000040000fa
:100400000f412200007f2200000188000000000050
:100410000c000700c02e240001002000110007007e
:10042000000020000000e000020032000000020096
:100430000000000084370200000000000040da00e5
:100440000000fe004440a900e06720000000e0003a
:100450000300320000002000a00188004440a800f2
:100460000000060091018800800078000000eb0089
:1004700015003700e280400032a0b4009101ba00bc
:10048000e280400032a0b4009102ba00e280400055
:1004900032a0b4000002eb00472bde00f507b200eb
:1004a000602ce10004003a000059eb008301e900f0
:1004b000fdff3e00040037006128e100010032002a
:1004c0000082eb00040007001101ba000200e00006
:1004d000e8ff3a00000006003159ba008301e90044
:1004e0000c0032002159ba008301e90008003200f3
:1004f0000400e00003003a00e280400032a0b400b3
:10050000f5ff370011d9ba008301e900faff3a007c
:100510008100e800e180400032a0b4000000060045
:1005200000000000000000000000000000000000cb
:100530003200f80091018800023b88000008bb00ef
:100540000500fc0051052000313b8800a10a200075
:10055000313b880061e7a8000000000000000000b7
:100560003200f900000006000400a100010037007d
:100570000400a0003200f80091018800110024005e
:10058000013b8800f10f20003208bb000400a700e7
:10059000b20078000198bb008301e900faff3a003d
:1005a000680151000400a700680151006800500074
:1005b0001208bb00e2ff3700f30f20003200f80002
:1005c0009101880031002400013b88000208bb0033
:1005d0000388bb00daff37003200f800003b8800d8
:1005e000d7ff37003200f8009101880080027800c0
:1005f00062004000e08048003549ba003204e00063
:100600000410a700100032008301e9000e00320040
:100610002549ba003204e0000410a7000a003200a5
:100620008301e900080032000408a300eeff320055
:1006300015c9ba003204e0000410a700020032001d
:100640008301e900e8ff3a003200f90000000600eb
:10065000889fbe008004780010d980000000e00070
:1006600003003a00100007000000e0000a00350017
:1006700010d980000900e00002003a000004780070
:10068000060037000004780009004000060007005b
:100690000000e00001003d000084eb00080078004d
:1006a0004f04be0000000600800078000000e0005b
:1006b00004003a0000c1210010d98800010178002f
:1006c000060037000081eb0000412200808f5000bf
:1006d00002003e0011d988000001eb000200780002
:1006e000000006006022b800060220000000d000d2
:1006f0008180d2000482d2008582d2000000a00056
:100700000202520083825a000300310002024200ba
:1007100083824a000000a1000603e900f3ff3a00cb
:1007200000000600a1108800b0108800000006003c
:1007300016c2bf000008a300fdff3a0016c2bf00aa
:100740000018a300faff3a0016c2bf000028a30059
:10075000f7ff3a0016c2bf000038a300f4ff3a00ca
:1007600016c2bf000048a300f1ff3a0019c2bf0043
:100770000068a300eeff3a00000006001602a80081
:10078000000006000080fb009010880018c2bf0027
:1007900001c8b300014060000080fb000000e900d8
:1007a0004f00de000000e900000006001642a8002d
:1007b000000006001662a80016c2bf000038a300a1
:1007c000fdff3a0018c2a900801080000080fb00e5
:1007d00000000600810178000002eb000b003700ea
:1007e000e44078000104e000030032000402e80065
:1007f00093cf5000040032008180fb001380fb0087
:1008000000805000000006008301e800820f5200c3
:10081000f3ff3a0000000500800078003004e0009b
:10082000feff3a00010050000000e9000000060051
:10083000889fbe008a9fbe008c9fbe00000178008a
:10084000a1b121001100e0000b003a00e0b121004d
:10085000d0d88800b0d88800f1d88800c1d88800e6
:10086000214090000004a000a0409800614090004a
:100870000004a000e0409800e7004100c208de004c
:10088000c20cdd00c3d880000dc121000041220050
:100890000d05500022002000811f78001100090082
:1008a0000205d80000067800cf007800c308dd00fc
:1008b000e4854000b5d880008000eb0007c121002e
:1008c000a6b121000100370080017800234090008c
:1008d0000008a300020032000a00370094097800e3
:1008e00013027800244090000008a300fbff3200b0
:1008f00009814100820f520002003900830f51002c
:100900004300310013007800830f5000eeff3e00db
:10091000870f500002003900860f5000eaff3900af
:10092000858f51004b003a00860f500049003a0075
:100930008100e800e18f5000e3ff36008c8f540007
:10094000040036008a8f5400020031000b04780046
:1009500012003700614ab8006151b900b0ff2f00a2
:10096000010020000200500083805800800f5200d8
:10097000818f5a0002003500090478000700370013
:100980000d80540032412200020040001100090095
:100990000a80d8000a80b9000004780008007800b6
:1009a0002bff070080017800e10f40002900320092
:1009b000b2d880000009780064004100a240900095
:1009c000808f5100020032000104a00001003700b6
:1009d0000104a1002141980088804100e48050007a
:1009e00081097800b1d88800a2b12100820878007e
:1009f000214090000004a000a040980023409000f7
:100a00000004a100a041980082017800a9ff3700ee
:100a1000c2d88800820f5200080036001200780009
:100a200041b12100a24290008548780090d888000a
:100a3000040978000040eb0020419800820978000a
:100a4000234090000004a000a04198006480410071
:100a5000010037000000eb004f06be004f05be004e
:100a60004f04be000000060064005000c0d888009b
:100a7000a04090000104a100214098000000060061
:100a8000889fbe008a9fbe0000057800e4015000e8
:100a900013001000c285de00234090000008a30070
:100aa00004003200c3d88800234090000004a10055
:100ab000a0419800010078005dff07000004780065
:100ac0000000e000170032008a0f500015003200cd
:100ad00060b8970008005000c284de00898f55007e
:100ae00001003600890578004259dd008a0078004f
:100af000080078000f0007008a0f54000900310039
:100b00004248dd00000044008a0f50000500360016
:100b10000a0050000000440092d88000a3d8800052
:100b20000288be00080078004f05be004f04be00da
:100b3000000006008001eb000200370061f0790040
:100b40008301e800828f5100fcff3a00000006009c
:020000040000fa
:10000800604300006043000060430000604300005c
:10001800604300006043000060430000604300004c
:10002800604300006043000060430000604300003c
:10003800604300006043000060430000604300002c
:100048006435000060430000604300006043000026
:10005800604300006043000060430000604300000c
:1000680060430000604300006043000060430000fc
:1000780060430000604300006043000060430000ec
:1000880060430000604300006043000060430000dc
:1000980060430000604300007033000060430000cc
:1000a80060430000604300006043000060430000bc
:1000b80060430000604300006043000060430000ac
:1000c800604300006043000060430000604300009c
:1000d800604300006043000060430000604300008c
:1000e800604300006043000060430000604300007c
:1000f800604300006043000060430000604300006c
:10010800604300006043000060430000604300005b
:10011800604300006043000060430000604300004b
:10012800604300006043000060430000604300003b
:10013800604300006043000060430000604300002b
:10014800604300006043000060430000604300001b
:10015800604300006043000060430000604300000b
:1001680060430000604300006043000060430000fb
:100178006043000060430000682200006043000004
:1001880060430000604300006043000060430000db
:1001980060430000604300006043000060430000cb
:1001a80060430000604300006043000060430000bb
:1001b80060430000604300006043000060430000ab
:1001c800604300006043000060430000604300009b
:1001d800604300006043000060430000604300008b
:1001e800604300006043000060430000604300007b
:0801f8006043000060430000b9
:020000040000fa
:10020800604300006043000060430000604300005a
:10021800604300006043000060430000604300004a
:10022800604300006043000060430000604300003a
:10023800604300006043000060430000604300002a
:100248006435000060430000604300006043000024
:10025800604300006043000060430000604300000a
:1002680060430000604300006043000060430000fa
:1002780060430000604300006043000060430000ea
:1002880060430000604300006043000060430000da
:1002980060430000604300007033000060430000ca
:1002a80060430000604300006043000060430000ba
:1002b80060430000604300006043000060430000aa
:1002c800604300006043000060430000604300009a
:1002d800604300006043000060430000604300008a
:1002e800604300006043000060430000604300007a
:1002f800604300006043000060430000604300006a
:100308006043000060430000604300006043000059
:100318006043000060430000604300006043000049
:100328006043000060430000604300006043000039
:100338006043000060430000604300006043000029
:100348006043000060430000604300006043000019
:100358006043000060430000604300006043000009
:1003680060430000604300006043000060430000f9
:100378006043000060430000682200006043000002
:1003880060430000604300006043000060430000d9
:1003980060430000604300006043000060430000c9
:1003a80060430000604300006043000060430000b9
:1003b80060430000604300006043000060430000a9
:1003c8006043000060430000604300006043000099
:1003d8006043000060430000604300006043000089
:1003e8006043000060430000604300006043000079
:0803f8006043000060430000b7
:020000040000fa
:100b50002020000031320000303000000020000072
:100b6000203200003430000030000000202000005f
:100b70003438000030300000002000002039000030
:100b80003630000030000000203100003434000016
:100b90003030000000200000313900003230000009
:100ba00030000000203300003132000035300000fa
:100bb0000020000033380000343000003000000016
:100bc00020350000373600003030000000310000d2
:100bd00031350000323000003000000032330000b8
:100be00030340000303000000034000036300000a7
:100bf0003830000030000000353000003030000098
:100c000030300000003800004e3100000038000095
:100c10004f31000000380000453100000045000061
:100c2000525200004f5200003a200000555300007d
:100c30004220000045720000726f00007220000028
:100c40002d200000646500007669000063650000e7
:100c50002072000065710000756900007265000077
:100c600073200000746f00006f2000006d7500009d
:100c70006368000020630000757200007265000068
:100c80006e7400000d0a0000004500005252000082
:100c90004f5200003a20000055530000422000004f
:100ca00045720000726f0000722000002d200000cd
:100cb000687500006273000020610000726500002a
:100cc000206e00006f74000020730000757000003b
:100cd000706f000072740000656400000d0a00006f
:100ce00000450000525200004f5200003a20000020
:100cf000555300004220000045720000726f000052
:100d0000722000002d20000064650000766900005c
:100d10006365000020690000732000006e6f000012
:100d20007420000073750000707000006f72000086
:100d300074650000640d00000a00000045520000c8
:100d4000524f0000523a000020550000534200006c
:100d500020450000727200006f720000202d00001c
:100d600020630000616e00006e6f000074200000c0
:100d7000656e0000756d0000657200006174000012
:100d8000652000006465000076690000636500006e
:100d90000d0a000000450000525200004f520000b2
:100da0003a20000055530000422000004572000028
:100db000726f0000722000002d200000636c0000a4
:100dc000696500006e740000206400007269000014
:100dd0007665000072200000696e000069740000f2
:100de000696100006c6900007a61000074690000ac
:100df0006f6e000020650000727200006f720000cc
:100e00000d0a000000450000525200004f52000041
:100e10003a200000555300004220000045720000b7
:100e2000726f0000722000002d2000006f7500001e
:100e3000742000006f6600002068000065610000fb
:100e4000702000006d6500006d6f00007279000079
:100e50000d0a000000450000525200004f520000f1
:100e60003a20000055530000422000004572000067
:100e7000726f0000722000002d200000756e0000cf
:100e8000737000006563000069660000696500001a
:100e9000640d00000a0000004241000055440000bb
:100ea000004900004e540000455200004641000039
:100eb0004345000000450000434800004f0000008b
:100ec00052450000534500005400000052530000fa
:100ed0003233000032000000484500004c50000052
:100ee000003f000000450000525200004f52000039
:100ef0003a200000436f0000756c00006420000081
:100f00006e6f000074200000696e000069740000bc
:100f1000696100006c6900007a65000020550000de
:100f200053420000207300007973000074650000d4
:100f30006d2e000020480000616c00007469000004
:100f40006e6700000d0a0000002000002d20000048
:100f500042610000756400002052000061740000ce
:100f60006520000072650000717500006972000064
:100f7000656400000d0a00000031000032300000fe
:100f80003000000032340000303000000034000037
:100f900038300000300000003936000030300000ea
:100fa0000031000034340000303000000031000017
:100fb00039320000303000000033000038340000c7
:100fc00030300000003500003736000030300000bf
:100fd000002000002d200000496e00007661000016
:100fe0006c6900006420000042610000756400002c
:100ff0002052000061740000650d00000a0000002e
:10100000202d0000204200006175000064200000d7
:101010005261000074650000204300006861000018
:101020006e670000656400000d0a000000200000eb
:101030002d200000496e00007465000072660000fb
:101040006163000065200000747900007065000095
:101050002072000065710000756900007265000073
:10106000640d00000a0000003000000031000000a4
:1010700032000000202d0000204900006e760000a4
:10108000616c000069640000204900006e7400007b
:101090006572000066610000636500002054000076
:1010a00079700000650d00000a000000202d00008e
:1010b000204900006e740000657200006661000047
:1010c0006365000020540000797000006520000076
:1010d00043680000616e000067650000640d000059
:1010e0000a000000202d0000204f00006e2f00009d
:1010f0004f66000066200000506100007261000031
:101100006d650000746500007220000052650000eb
:101110007175000069720000656400000d0a00002e
:10112000004f00004e0000004f4600004600000047
:10113000202d0000204900006e760000616c000048
:101140006964000020450000434800004f20000073
:1011500050610000726100006d6500007465000060
:10116000722000004f4e00007c4f000046460000f9
:10117000206f000072200000317c0000300d000064
:101180000a000000202d0000204500004348000018
:101190004f20000043680000616e0000676500009a
:1011a000640d00000a000000202d00002052000005
:1011b000533200003332000020760000616c0000e2
:1011c00075650000207200006571000075690000ff
:1011d00072650000640d00000a000000202d000070
:1011e000204900006e760000616c00006964000018
:1011f000205200005332000033320000205600001d
:10120000616c0000756500000d0a00000020000000
:101210002d20000052530000323300003220000025
:1012200043680000616e00006765000064200000f4
:101230002d200000506f0000776500007220000034
:101240006f660000662000006f72000020720000d0
:101250006573000065740000207400006f200000ba
:10126000616300007469000076610000746500002d
:101270000d0a0000000d00000a5500005342000056
:10128000204800006f7300007420000043440000f9
:1012900043200000436f00006d6d0000756e00007c
:1012a0006963000061740000696f00006e730000e4
:1012b000204300006c6100007373000020000000f8
:1012c000763100002e310000370000000d0a0000ca
:1012d0000d0a0000002000002042000041550000df
:1012e000442000003c760000616c00007565000041
:1012f0003e200000202000002020000020200000d0
:101300002d2000005365000074200000536500008c
:1013100072690000616c0000205000006f720000d4
:10132000742000004261000075640000205200003b
:1013300061740000650d00000a000000202000001c
:10134000202000002020000020200000202000009d
:10135000202000002020000020200000202000008d
:101360002020000020200000205b0000313200001f
:10137000303000007c32000034300000307c00004f
:1013800034380000303000007c3900003630000076
:10139000307c00003134000034300000307c00002c
:1013a0003139000032300000307c0000333800005a
:1013b00034300000307c000035370000363000004b
:1013c000307c000031310000353200003030000048
:1013d0005d0d00000a000000202000002020000019
:1013e00020200000202000002020000020200000fd
:1013f00020200000202000002020000020200000ed
:1014000020200000205b0000323300003034000058
:10141000303000007c3400003630000038300000ee
:10142000305d00000d0a000000200000204900008f
:101430004e54000045520000464100004345000064
:10144000203c0000766100006c750000653e0000e5
:10145000202000002d2000005365000074200000b3
:101460005365000072690000616c00002074000088
:101470006f2000005553000042200000696e0000fc
:101480007465000072660000616300006520000062
:101490006d650000746800006f6400000d0a0000b4
:1014a00000200000202000005b0000005d20000004
:1014b000202000002020000020200000202000002c
:1014c000202000002020000020200000202000001c
:1014d000302000002d2000005374000072690000cd
:1014e0006e670000202d000020730000656e000074
:1014f000647300002073000074720000696e0000c5
:10150000672000006f6e000063650000204300004c
:1015100052200000726500006365000069760000db
:10152000656400000d0a000000200000202000007b
:1015300020200000202000002020000020200000ab
:10154000202000002020000020200000202000009b
:101550002020000020200000312000002d2000006d
:10156000427900007465000020200000202d00005a
:1015700020730000656e00006473000020650000a9
:10158000616300006820000062790000746500005b
:1015900020610000732000006974000020690000d1
:1015a000732000007265000063650000697600002a
:1015b000656400000d0a00000020000020200000eb
:1015c000202000002020000020200000202000001b
:1015d000202000002020000020200000202000000b
:1015e0002020000020200000322000002d200000dc
:1015f00050610000636b000065740000202d000046
:1016000020730000656e000064730000206100001c
:1016100020700000616300006b6500007420000012
:1016200073740000726900006e6700000d0a00000c
:101630000020000020450000434800004f2000002b
:101640004f4e00007c4f0000464600002020000066
:101650002020000020200000202000002d2000007d
:1016600053650000742000004c6f000063610000af
:101670006c20000045630000686f0000204f0000f0
:101680004e2000006f720000204f00004646000010
:101690000d0a000000200000202000005b4f000029
:1016a0004e5d00000d0a0000002000002020000018
:1016b0005b4f0000464600005d0d00000a00000080
:1016c000202000005253000032330000322000007e
:1016d0003c760000616c0000756500003e20000053
:1016e0002020000020200000202d000020530000ba
:1016f00065720000696100006c200000706f0000de
:1017000072740000206300006f6e000066690000c4
:101710006775000072610000746900006f6e000060
:10172000200d00000a0000005d20000020200000c5
:1017300020200000202000002020000020200000a9
:101740002020000020200000202000005b3000004e
:101750002f4f0000464600005d2000004465000059
:1017600066610000756c0000742000005454000095
:101770004c2c0000205b0000312f00004f4e000079
:101780005d20000052530000323300003220000080
:10179000496e000076650000727400006564000008
:1017a000206c00006f670000696300000d0a0000f4
:1017b0000020000020480000454c000050200000a0
:1017c0006f720000203f0000202000002020000059
:1017d0002020000020200000202000002d200000fc
:1017e00064690000737000006c61000079200000e3
:1017f000686500006c7000000d0a000000550000d4
:101800006e73000075700000706f0000727400004d
:1018100065640000206300006f6d00006d610000d2
:101820006e6400000d0a000000000000303100006e
:1018300032330000343500003637000038390000fc
:0c18400041420000434400004546000007
:020000040000fa
:10184c00004178000004e00002003a00f1d580006d
:10185c0013003700e3d580000300e0000f003200d6
:10186c00230090000000e00009003200a00090006e
:10187c000100e0000600320021589000804f51001a
:10188c0007003200910078000100e000faff3a00f6
:10189c00930178000300e000f1ff3a008000eb00b8
:1018ac00010078000000060062002000b55ae30039
:1018bc000d003a0001407800e1ff0700800078003d
:1018cc00420120000000e0000700320020409000a0
:1018dc000054a100a0409800214090000064a10099
:1018ec00a04098000001eb00020078000000060008
:1018fc00c0dabf004600de00610060000000060098
:10190c0030d6800001f0200001006000120320009e
:10191c001600320030d6800001f02000010060007b
:10192c0001402000810f500007003a0030d68000a3
:10193c00000fb200a2032000f00f50000b00320089
:10194c00020320000900370030d6800001f020008f
:10195c00010060002203200001502000810f500084
:10196c0002003a00b6dabf000081fb0002007800ea
:10197c00000006000004e00017003a00e4d58000e7
:10198c000400e0001b003200940190000300e00012
:10199c000d003200a30090000100e00007003200af
:1019ac0072cfb3003140900002406000b04098000c
:1019bc00910078000100e000faff3a0093017800f2
:1019cc000300e000f3ff3a00140278000400e0008a
:1019dc0008003200ecff370099ff07008000780008
:1019ec000000e00003003200304090000034a10001
:1019fc00b040980000000600881f780000047800b2
:101a0c00204090000054a1002044980028409000f1
:101a1c000064a10020449800284090000074a100ac
:101a2c0020449800384090000004a10030449800f5
:101a3c002840900005ceb30005406000204498007b
:101a4c00384090000044a10030449800330c9800ba
:101a5c006033b800060c9800170c98006123b8008e
:101a6c0056049800670498000000eb00700c980076
:101a7c00210c9800720498000400e00003003a0066
:101a8c0000c1b300005c98000200370000c3b30033
:101a9c00005c9800384090000014a100304498007d
:101aac004f04780000000600a04290000554a100ed
:101abc0025409800a04290000564a10025409800a4
:101acc00a04290000574a10025409800b0429000ff
:101adc000504a10035409800a042900006ceb3004a
:101aec0086c2620025409800b04290000544a100d7
:101afc0035409800330898006033b8000608980009
:101b0c001708980005002000540098006500980004
:101b1c008001eb007308980021089800720098006f
:101b2c0001c2b30001589800b04090000114a1000c
:101b3c003140980000000600e4874700889fbe00f3
:101b4c008a9fbe008c9fbe008e1f78008146780055
:101b5c000245780083047800040478008505780039
:101b6c0086bf9f000747780062002000b55ae3004b
:101b7c0066003a0030d6800001f0200001006000c1
:101b8c001200200001402000810f50005f003a003d
:101b9c00f0d5800030409000020120000018a30016
:101bac005a003200eb4f550022003a00e2d580007b
:101bbc000200e0004b003a004800370012017800a8
:101bcc000200e00045003200624090000080fb0003
:101bdc00800f5400f9ff3a00220090000000e00052
:101bec003e003200a00090000100e0000600320030
:101bfc00314090000018a3003800320091007800aa
:101c0c000100e000faff3a00920090000100e000b1
:101c1c0039003a0031003700910078000100e000f3
:101c2c002e0032003400370021019800084678005d
:101c3c000b003700e14f550004003a000300e000b0
:101c4c0002003a00e2cf5600020036000846780047
:101c5c0003003700044678000440780045ff070075
:101c6c0091d380008d4878009a409800a940980044
:101c7c004848de00b0409800cc4098004840de0058
:101c8c00d0409800eb4098004858de00f040980097
:101c9c00f0d580000fe99700125898000e04e00070
:101cac0007003a00f0d580000b0278008fb997003e
:101cbc008200200050ff07000001eb0013003700ea
:101ccc00f0d580000b0278008fb9970082002000bd
:101cdc0075ff07000001eb000c00370032002000fc
:101cec000a003700624090000080fb00840f500017
:101cfc00b2ff3a00b8ff3700214090000080fb0093
:101d0c00808f5400c4ff3a00c7ff370002007800f0
:101d1c004f0778004f06be004f05be004f04be00b3
:101d2c004f00b1000000060080017800020278002c
:101d3c00204090000074a100a04198003340900016
:101d4c000004a100b04198002340900002ceb300e3
:101d5c0002406000a0419800334090000044a10074
:101d6c00b0419800b10998006000b8008009980053
:101d7c00910998006120b800d0019800e101980009
:101d8c000000eb00f0099800d30890000030200010
:101d9c0080806000808f500003003a0000c4b300c4
:101dac00805998000b00370000102000808f5000e5
:101dbc0006003a0000c6b30080599800b3089000a2
:101dcc000040eb00904098000200370000c8b300c0
:101ddc0080599800334090000014a100b041980045
:101dec0000000600889fbe008a1f780081417800a1
:101dfc00020578000404be0062002000b55ae3001e
:101e0c0026003a0030d6800001f02000010060006e
:101e1c001200200001402000810f50001f003a00ea
:101e2c000340780086fe0700800178004201200004
:101e3c000000e00019003200500890000030b200a1
:101e4c00820120001500320023589000520120001e
:101e5c000004e00011003d0023409000120120001e
:101e6c000058a3000d003a002340900022012000ee
:101e7c000068a30009003a003340900002012000e2
:101e8c000018a30005003200080178008a007800d1
:101e9c0003007800a4ff07000001eb0002007800ab
:101eac004f0578004f04be000000060061002000c2
:101ebc00b55ae30008003a0030d6800001f020004b
:101ecc000100600031002000030032000000eb0034
:101edc0030d68800800078000100780000000600f1
:101eec0062002000b55ae30007003a0031d68000aa
:101efc003200200000412000808f500002003a0088
:101f0c00c63aec000001eb0002007800000006006d
:101f1c00f0d58000304090000018a300160032006d
:101f2c00e3d580000300e0001400320013019000a0
:101f3c000200e0000c003200a20090000100e00062
:101f4c0006003200314090000018a3000a00320055
:101f5c00910078000100e000faff3a0012017800cd
:101f6c000200e000f4ff3a00930178000300e00067
:101f7c0002003200edff37001000050000000500e4
:101f8c00881f78000144780062002000b55ae300f5
:101f9c0013003a0030d6800001f0200001006000f0
:101fac001200200001402000810f50000c003a006c
:101fbc00d7ff0700220020000000e00008003a00d4
:101fcc0008007800b2fab70000c0eb00f1d5800031
:101fdc00905898000033200030d688000001eb00a8
:101fec00020078004f04780000000600889fbe00b5
:101ffc000204be0062002000b55ae3000e003a0055
:10200c00014078000efe070080017800420120009c
:10201c000000e00008003200e1406400c508dd006b
:10202c00304090000054a10001407000b041980075
:10203c00891198000001eb00020078004f04be00eb
:10204c0000000600889fbe008a9fbe008c9fbe00c9
:10205c008e1f780000477800810478000206780013
:10206c008300780020072000808f5400030032008a
:10207c00f0ff2700808f54000e003a001c4890009f
:10208c00e14f40001d003200a2c0b3000440bc0070
:10209c000281e80080ae2100e2017800610ab800fc
:1020ac000c017800890078000e40780003000100d4
:1020bc0012003700e8d580000800e0000f00320065
:1020cc00611db8008dae210078409000a2c0b30015
:1020dc000440bc000281e800e2817e000a02be00de
:1020ec000c017800890078000e4078000300010094
:1020fc00180478000800e000f3ff3a004f0778005e
:10210c004f06be004f05be004f04be000000060087
:10211c0062002000b55ae30009003a0031d6800075
:10212c003200200000402000808f500004003a0054
:10213c009404a9000041200030d688000001eb0077
:10214c00020078000000060041d68000214090007b
:10215c000064a100a0409800214090000054a10010
:10216c00a0409800cd5aed00cdfab7000300320024
:10217c0000ff2f00c63ab60000000600cc5aed0056
:10218c00ccfab700030032000011200030d68800d2
:10219c000000060070c0b300b6fab7000050200073
:1021ac0030d6880000000600881f780052d88000c6
:1021bc00c0daa9000003eb0023ad210008ad21001b
:1021cc004330dd006600400060007c000018a30076
:1021dc000c003200e3f897004240900080cf500092
:1021ec001f003a00f3f897005240900080cf500047
:1021fc001b003a0062409000934f100018003a0008
:10220c00160037008303780073ba97008248900059
:10221c008180fb00124890004800dd0081027000b4
:10222c00850f520007003a00a24890008180fb0005
:10223c00324890004800dd0001007000930f100040
:10224c0005003200e10f420005003a000080eb006f
:10225c00970f100002003a0015d88800c0daa800c9
:10226c00c0dabf000068a3000f0032004331dd006c
:10227c008200440051409000b7fab700660041005c
:10228c0060007c00110020000028a3000b0032002d
:10229c004330dd006400400060407c00b2fab700bf
:1022ac0011002000050037000603e800e88141001a
:1022bc00e30f5300c2ff3a008000eb0001007800ee
:1022cc004f04780000000600889fbe008a9fbe0065
:1022dc00ebd580000b00e000280032009b05780055
:1022ec00e0d58000900090000100e0001f0032005b
:1022fc0011057800e0d5800090009000210090003e
:10230c000000e0000e0032008004eb0010047800a6
:10231c00d2f90700e0d58000100090002900980049
:10232c00e0d580001000900028009800e0d58000d7
:10233c0090009000210090000000e000f3ff3a00b4
:10234c0001007800c5f907000000eb00e1d5800022
:10235c0090009800e0d580001a009800e0d580002d
:10236c00900090000100e000e1ff3a00bbf907008b
:10237c00ebd588000b00e000d8ff3a00f0d58000c8
:10238c0040d688004f05be004f04be00000006007a
:10239c00881f7800d0d580000000e0000b003200d0
:1023ac001004900010007800acf90700d0d5800024
:1023bc000008eb00d0d58000a8f9070008007800d1
:1023cc00d8d588000800e000f5ff3a0050d880000e
:1023dc000000e00002003200a0f907000a3bef0009
:1023ec0090d380000000e000020032009bf907004f
:1023fc00723aef00b4ff07004f04780000000600ab
:10240c00be1ae20007003a002002200005f907007e
:10241c00f0d588000000e000120032000008eb004c
:10242c0001003700daff0700f0d5800040d68800a5
:10243c008000eb0031d6880076baef008000fd00fa
:10244c00b4fab700b5fab7008000fd00781aa800fe
:10245c0040002000d0d38800e0d38800f1d388005e
:10246c0010002000000006000200fa008000eb00c3
:10247c0041248800b5dabf000b003200e1ff9f0059
:10248c0024002000050020000f81e900a106200097
:10249c00770f0700b5dabf001300200052ab210004
:1024ac0011072000e7fe07006000b800d4ff07000a
:1024bc000080fa0000000600b55ae3000b003a0059
:1024cc0001407800defc0700800078000000e0008e
:1024dc0006003200204090000074a000a04098003c
:1024ec00314090000014a000b0409800000006009d
:1024fc00889fbe000204be00b55ae30006003200fd
:10250c0060c0b300004978008009eb00b31178007b
:10251c00100020002300370001407800c8fc0700a1
:10252c00800078000000e0001b003200304090007a
:10253c000000d10061416000314090000008a30010
:10254c0005003200004ceb00010a9000910a90004b
:10255c00848cbe000e003700214090000058a30070
:10256c000300320010c1b300004c780008003700a3
:10257c00214090000068a30003003200c158900075
:10258c00014c78000200370090c1b300004c780079
:10259c000280fb000300370040c1b300004c780000
:1025ac00100020004f04be000000060080017800df
:1025bc00e1cf40000d003a000204e0000b003a00ad
:1025cc0080062000808f510003003a00a6ff070010
:1025dc00781aa90000000500b0062000808f510079
:1025ec0002003a00781aa80000000500300005002f
:1025fc008001780002027800204090000074a10055
:10260c00a0419800334090000004a100b041980014
:10261c002340900002ceb30002406000a04198001d
:10262c00334090000044a100b0419800b1099800db
:10263c006000b80080099800910998006120b800ea
:10264c00d0019800e10198000000eb00f00998001f
:10265c00d30890000030200080806000808f5000f4
:10266c0003003a0000c5b300805998000b003700f6
:10267c0000102000808f500006003a0000c7b30005
:10268c0080599800b30890000040eb0090409800ef
:10269c000200370000c9b300805998003340900005
:1026ac000014a100b041980000000600889fbe00f5
:1026bc008a1f780081417800020578000404be006e
:1026cc0062002000b55ae30026003a0030d68000a4
:1026dc0001f02000010060001200200001402000e9
:1026ec00810f50001f003a000340780054fc070093
:1026fc0080017800420120000000e0001900320047
:10270c00500890000030b200820120001500320009
:10271c0023589000520120000004e0001100350005
:10272c0023409000120120000058a3000d003a0035
:10273c0023409000220120000068a30009003a0009
:10274c0033409000020120000018a3000500320065
:10275c00080178008a00780003007800a4ff0700c5
:10276c000001eb00020078004f0578004f04be001a
:10277c0000000600ee874700889fbe008a9fbe00bf
:10278c008c9fbe008e1f7800804678000147780031
:10279c00e2ef9f0083bf9f005bd880000004eb003a
:1027ac0029ad21000cad21004345dd00660045003c
:1027bc0060007e000018a3002d00320069f897001d
:1027cc008d4f50002a003a0079f897008e4f500038
:1027dc0027003a006fe89700994f100024003a0048
:1027ec008b4890008180fb001b4890004800dd0066
:1027fc0081007000b1b79f008b4890008180fb0076
:10280c001b4890004800dd000100700010d88800c3
:10281c00ab4890008180fb003b4890004800dd00f5
:10282c0001007000c0b79f00adef9f00beef9f008e
:10283c00efe89700c1ef9f00840020000500200006
:10284c007a8157009107200000c0eb00880e07002a
:10285c000000e00006003a000a00460050409000dc
:10286c008fb89700804878001000200005003700d2
:10287c000804e800e8844400e30f5400caff3a005f
:10288c000000eb004f0778004f06be004f05be005e
:10289c004f04be00ef00b10000000600ec874700bb
:1028ac00889fbe008a9fbe008c9fbe008e1f780042
:1028bc0062d88000e9d58000c03aa900c05aa800af
:1028cc0012447800a24090008180fb0032409000be
:1028dc004800dd000087400052409000e0ef9f0070
:1028ec0002499000f2ef9f0077815700ffe89700b4
:1028fc00114198000049eb00240020000500200045
:10290c009106200000c0eb00590e07000002eb00fe
:10291c000000e00003003a0080c2b300b6fab70032
:10292c00140020008880fb0060d8800000844000e8
:10293c000400e000cc003a0001057800d4ef9f00c1
:10294c00bf00370014002000c7003700184678007d
:10295c00984090000880e800e9cf50000c003a0045
:10296c00c03aa80010407800b3fab7000018a300d2
:10297c0005003200c0dabf000038a30002003200ac
:10298c00c05aa900b1003700c07aa900af003700c7
:10299c00e4cf5000ad003a0090467800b84090006b
:1029ac0091f79f004840900080f79f00584290009c
:1029bc00e84090007841900068044400c0dabf0001
:1029cc000068a3000400320071ab21009140780034
:1029dc0081ef9f0005003700f88157000440780014
:1029ec0064ff07000000e000980032000900e000de
:1029fc00d2003a0008003700890578009b05780062
:102a0c000b00e000040032006b4090008d4f500032
:102a1c0016003200f9ff37008000200081f7070014
:102a2c00800578000000ea000b0070004f00de000b
:102a3c0011c0b30000c050000082fb00ed459800af
:102a4c008fe89700f14598008000eb009105980005
:102a5c00a1059800890d78000004e0000200320006
:102a6c008b047800700037008b0478006000200025
:102a7c006cf7070080067800140020000000e000ce
:102a8c0069003200a0003700ad0598000c80fb00f7
:102a9c000005450060d88000000445000040eb00b4
:102aac00c0ef9f00a2003700184678008885e80028
:102abc0018409000e54f500009003200dfe8970005
:102acc00c1ef9f000c80fb000005450060d8800022
:102adc0000044500960037004fe89700d0ef9f00a8
:102aec00200220004ff70700800178000000ea0068
:102afc0003007000cf02de0010c0b300854250000e
:102b0c000582fb009b457800ab599800b8409000bb
:102b1c00b1599800c84090008180fb00c101980019
:102b2c00584090004800dd0080804000c1019800b2
:102b3c00684090000083fb00a60198000001eb00a8
:102b4c0092019800334090000024a000b0419800fe
:102b5c00334090000014a000b04198006000b80011
:102b6c008009980091099800825998000fe8970005
:102b7c0090599800530890000030b20001102000ca
:102b8c00810f500011003a000600e00002003a00ec
:102b9c0010002000a001980023009000f00f5000be
:102bac000200360000012000a001980023009000d4
:102bbc000000e900110020008008dd00a101980050
:102bcc00334090000024a100b0419800a300900075
:102bdc00b10198002d00900080097800a3069800a0
:102bec00dfe897008140e800d1ef9f000c80fb00ec
:102bfc000005450060d88000000445000504e00095
:102c0c0009003a008a0f5700060036000ff09700b3
:102c1c0080cf5000a4ff3a0002003700cfe89700a5
:102c2c00d1ef9f000002eb005fe897008ff0970058
:102c3c00814f500043ff3a000400e0000a003a00c4
:102c4c008a0f570041ff3e00070037000c80fb0045
:102c5c000005450060d88000000445008a0f57002d
:102c6c003aff3e000002eb000900e00024003200b5
:102c7c000400e0001a0032001905780019049000d5
:102c8c000800e00010003200180078009004980052
:102c9c00280090000000e000060032009000780050
:102cac00210498006df70700280090000000e00058
:102cbc00faff3a000800780068f707001904900042
:102ccc000800e000f0ff3a000900780063f7070005
:102cdc000a00e0000a0032008a047800e6ff3700a0
:102cec006fe89700b2fab700ffe897000180fb008d
:102cfc00c0d58800e9d58800100020001e003700e0
:102d0c000000eb001c0037001b009000800e7800c8
:102d1c009ff09700a14698000000eb00a0069800d9
:102d2c009d0598000104e00057ff320057ff370063
:102d3c008a0f570006003e00b8ff3700694090002c
:102d4c008d4f50002cff3a008905780047ff370063
:102d5c004fe897008ff09700814f5000afff310084
:102d6c00184678008885e80018409000e54f500020
:102d7c0054ff3a0058ff37004f0778004f06be004b
:102d8c004f05be004f04be00cf00b100000006008e
:102d9c000200fa00889fbe007e1ae2001f0032007b
:102dac00e0d3800002a82100e20f500003003c0099
:102dbc006c00b900c2a8210000014100920078000b
:102dcc0020072000808f500003003200f0ff270006
:102ddc00808f500004003a000281e800b5dabf0091
:102dec00a300200097fc0700612480008c24ef00d6
:102dfc007e3aed00e0d38000e20f500003003c006f
:102e0c000000e800e0d38800010037007c3aef00b6
:102e1c00612488007e1ae200e1ff3a00b0d3800002
:102e2c00e10f400003003200b0d3800030d68800a0
:102e3c0076baef0031d6800000f020008080600070
:102e4c0000202000808f50005001320006003e0010
:102e5c000100e0000e00320000102000808f5000b6
:102e6c0024033a008400370000402000808f50007b
:102e7c00cd0232000010b000808f5000e40232000e
:102e8c0000302000808f50001a033a006c0137008c
:102e9c0031d68000010fb200f08f50005800320084
:102eac0003003e000100e00008003200110337006f
:102ebc0000022000808f500054003200700040004f
:102ecc00808f50000b033a006900370066fd070045
:102edc008001eb00f0d5800003087800f0d580006d
:102eec0013009800f1d58000314090000024a00020
:102efc00b0409800f1d58000314090000014a00043
:102f0c00b0409800f1d58000314090000054a000f2
:102f1c00b040980041012000f0d5800001109800cd
:102f2c0001042000f0d58000410098006000b8003a
:102f3c00f2d580000009980011099800f0d58000a6
:102f4c0023589800f0d5800003589800f2d58000e3
:102f5c0052089000f1cf2f0001006000500998003a
:102f6c0080c0eb00f0d580001158980030c0b30041
:102f7c00ccfab7008001fd00b2fab700b3fab70083
:102f8c00b4fab7008001fd0003d68800e3d58800b1
:102f9c0013d6880063248800f10f20005124880088
:102fac00c00820008224b6006f0050000024880066
:102fbc00832488007124880000c021004800de00b2
:102fcc00c024880081002000a1248800a0002000db
:102fdc00a0248800a124880000032000302488004d
:102fec00200020003025880043258800b324880069
:102ffc00aae4a900a004200000258800b302370031
:10300c00781aab00bb023200b00237000041eb0073
:10301c00a2ff9f0020c3b300b0ff9f00240020003c
:10302c0005002000668157009106200000c0eb00cf
:10303c008f0c07000000e000090032001000200097
:10304c00402488008ec0a900f00f2f00ce20b600bf
:10305c0000602000ce20b7009ec0a8009b02370065
:10306c00781aa9000001200030d68800a102370090
:10307c008cc4a8009f02370031d68000010fb2002b
:10308c0000022000808f50006100320005003e00dd
:10309c000100e0000a003200f08f500095023a0067
:1030ac001200370000032000808f50009500320082
:1030bc0070004000808f50008e023a00b100370043
:1030cc0030d680006f00600003003200e20f500029
:1030dc0088023a007d02370010002000502488003e
:1030ec008c04a800b00f20004102370030d68000bd
:1030fc006f046000e20f54003c003200e40f5400f7
:10310c003e0032000800e0007a023a0090d38000c2
:10311c000000e0000200320050f6070098d388004f
:10312c0080002000bff5070090d388000000e0006d
:10313c001c0132000040eb00b2fab700b3fab70042
:10314c000000eb0000d6880031c0b3008000fd0009
:10315c00cdfab7008000fd00d10020005125880079
:10316c0060258800702588008025880090258800bf
:10317c00a0258800b0258800c0258800d0258800af
:10318c00e0258800f025880000268800102688009d
:10319c002026880030268800402688009444e200cf
:1031ac0006003500c01aa80000c8b300b4fab70076
:1031bc0000082000b0248800aae4a8009424a800e9
:1031cc009424a900c09aa900c0baa9009484a800ac
:1031dc003003200050d688006d0040000024880089
:1031ec0082c4a800c63aec00420237009484a900bd
:1031fc009404a80050062000fd013700f0002000c8
:10320c0060248800f00f2000802488002f023700f3
:10321c0030d680006f006000e10f500013003200c8
:10322c0003003900e20f500032023a001f00370051
:10323c0050d880000000e0000200320007f60700c2
:10324c000a3bef0091d3800000c8b300804878009f
:10325c0060c0b300904098000041eb00a240980081
:10326c0010c0b300b0409800b0003700f1d580001a
:10327c00314090000018a3001e0232003140900033
:10328c000008a3008e01320090d3800040409000d3
:10329c00e94f50008e013a0050c3b300b6fab700a4
:1032ac000050200030d688001202370090d38000e6
:1032bc001080fb005bf507008000780050d8880078
:1032cc000000e000b700320090d3800090487800f6
:1032dc00f04090008180fb00f2d580004101980005
:1032ec00def50700723aef00f0d580004000900048
:1032fc004cf5070090d388000000e000a9003200d4
:10330c004901370030d680006f006000e10f50009b
:10331c006401320003003900e20f5000f5013a005d
:10332c0041013700c2dabf0070416000f1013a0080
:10333c0091d3800000c8b3008048780060c0b3000f
:10334c0090409800a240980010c0b300b040980084
:10335c00c2409800d240980050d8800010407800ad
:10336c00e0409800f240980053d88000f0d58000df
:10337c001382fb0082002000cbf90700c63aec0058
:10338c00dc01370088fb07002700370030d68000af
:10339c00000fb200d7013a0030d680006f006000f9
:1033ac00e10f50003f01320003003900e20f5000e2
:1033bc00d0013a001500370010c0b300b5fab700c1
:1033cc0091d380000041eb008248780050c0b300dc
:1033dc0090409800b5dabf00a0409800b240980029
:1033ec00c2409800d2409800e2409800f240980009
:1033fc00f0d580000002eb008401780082002000f0
:10340c007df90700c63aec00ba013700c0dabf00fc
:10341c00610060004700dd00b55ab700b4fab70090
:10342c0030c0b300cdfab70030d6800001f02000d8
:10343c00010060000010b00030d68800ad013700ec
:10344c0031d68000010fb20000022000808f5000a6
:10345c006d00320005003e000100e0000a00320061
:10346c00f08f5000a3013a001e003700000320002b
:10347c00808f50009400320070004000808f50000c
:10348c009c013a00eb00370050d88000105090009f
:10349c00cefab7000040e900e94f500002003600b8
:1034ac00a0c0b300cefab700d0d580000000e00079
:1034bc0086013200100490001000780067f50700b8
:1034cc00d0d580000008eb00d0d5800063f5070054
:1034dc0008007800d8d588000800e000f5ff3a0015
:1034ec007a01370030d680006f006000e10f500089
:1034fc00ec00320003003900e20f50007d013a006d
:10350c001600370091d3800000c8b30080487800c3
:10351c0060c0b30090409800ce5aed00a0409800d7
:10352c0020c0b300b04098000041eb00c2409800ae
:10353c00d240980080c0b300e0409800f240980060
:10354c00f0d580008400200081017800040178000f
:10355c0055f90700c63aec00660137006000200000
:10356c00b0f407000000e0000e0032000004780008
:10357c0091d38000314090004800dd00a1409000c4
:10358c008180fb0001004000a6f4070000017800d8
:10359c00000c78000000e00007003a0008007800fa
:1035ac002ef5070030c3b300b6fab7000050200068
:1035bc0030d688004f01370090d38000b040900087
:1035cc00c808dd00204090000080fb008080400097
:1035dc0021419800c808de0031419800d2d5800006
:1035ec0012049800d8d588001800780060d888009c
:1035fc00e2ac2100124178004244980030c0b30084
:10360c00cdfab7003101370030d680006f00600072
:10361c00e10f5000a300320003003900e20f50000c
:10362c0034013a002000370091d3800000c8b30069
:10363c008048780060c0b30090409800ce5aed00ee
:10364c00a040980020c0b300b04098000040eb00b0
:10365c00c0409800d0409800d0d580001000780071
:10366c0020409000e0409800d0d5800010007800f9
:10367c0030409000f0409800d0d580009001780048
:10368c00234190000281fb00334290004822dd0070
:10369c00f0d58000020272008200200002f90700bf
:1036ac00c63aec001301370030c0b300cdfab700b6
:1036bc00ce5aed00cefab7000401320000312000e2
:1036cc0030d688000b01370030d680006f006000c8
:1036dc00e10f50003500320005003900e20f5000b8
:1036ec0070003200e30f500002013a004500370031
:1036fc00f5fa070022ab2100124178000204e00029
:10370c0010003a00d0d58000a0d388000000e00063
:10371c00200032001000780060d888005ffc0700a1
:10372c000000e0001b003a00e7fa0700a0d380007d
:10373c0010009000a0d388000000e00015003200bb
:10374c00f4ff3700d1d58000a1d388000100e00040
:10375c00e4003a0007003700910090000100e000ff
:10376c000300320041409000804f5100faff3a00b4
:10377c00a1d388009100780061d8880047fc07002d
:10378c00000478000000e00002003a00cefa0700c6
:10379c00a8d38800c0dabf000028a3004c00320078
:1037ac00741ae2001b00320049003700c0dabf0077
:1037bc0064406000c5003a00c05aa80091d3800054
:1037cc008048780032c0b30092409800c0dabf0045
:1037dc000038a30002003200a2409800020037001b
:1037ec0040c0b300a04098000040eb00b0409800ef
:1037fc00c0409800d0409800e0409800f0409800fd
:10380c002200370030c0b300cdfab700741ae200c2
:10381c0005003a0040c3b300b6fab70000502000d0
:10382c0030d68800b300370030c0b300cdfab700f3
:10383c00a600370030d680006f006000e10f50000a
:10384c001800320005003900e20f50001e00320053
:10385c00e30f5000a7003a001f00370091d38000ff
:10386c000041eb008248780090c0b3009040980073
:10387c00b2dabf00a0409800b2409800c240980055
:10388c00d2409800e2409800f2409800f0d58000b9
:10389c000002eb00840178008200200056f807003b
:1038ac000b003700f1d58000314090000018a300c8
:1038bc0090003200314090000008a30004003a0050
:1038cc0021fa07008b00370030c0b300cdfab700e7
:1038dc00c63aec008700370030d6800001f020009b
:1038ec00010060000010b00030d68800c0dabf00c4
:1038fc000068a3001400320071ab210091407800e5
:10390c0001407800a2c0b3000440bc0082017800e2
:10391c0082ae210002824100b5dabf00e3027900d9
:10392c0034019000c4019000050001000000e0008b
:10393c0070003a0090c3b300b6fab70000502000f4
:10394c0030d688006b003700e8d580000800e00016
:10395c006800320089ae2100f840900001407800e8
:10396c00a2c0b3000440bc0089014100b5dabf001d
:10397c0062827c0033019000c301900004000100be
:10398c000000e00004003a0090c3b300b6fab700a0
:10399c000050200030d68800180478000800e000a1
:1039ac0054003200ecff370030d68000000fb2001c
:1039bc00f00f50004f003a0030d680006f006000ce
:1039cc00e30f500007003200e50f50000d003200ed
:1039dc00e10f500047003a009444a8005001200029
:1039ec00030037009444a9009404a800b000200000
:1039fc0050d68800000420000024880082c4a8004f
:103a0c00b3ff37000040200030d688003900370063
:103a1c0032d68000020fb20036003a00800020003f
:103a2c00a024880062248800f10f20005124880013
:103a3c00c00820008224b6006f00500000248800cb
:103a4c0082248800712488008c04a80062ab2100b9
:103a5c001241780040c3b300c1062000804f5100d2
:103a6c001500320007003e008100e800e74f5100ce
:103a7c00110032000040e900804f51000b003a0069
:103a8c00080037005106200050c3b300804f51008e
:103a9c000900320064404000804f510003003a009e
:103aac0004003700f1062000030037000107200056
:103abc0001003700e1062000b5dabf001400200039
:103acc000500200082ab2100e909070030d68000f8
:103adc0001ff2000010060007000400030d688001b
:103aec000400370041409000804f51001aff3a000b
:103afc0020ff37004f04be000080fa0000000600d3
:103b0c0000427800f1d580008082fb0051089000c3
:103b1c004800de0063006000850f500005003a008d
:103b2c00314090000018a30002003a0041d68800f2
:103b3c0010000500c57aef00e3d580000300e0001b
:103b4c002d003200230090000000e0001e00320027
:103b5c0023003700520890004800de00630060002c
:103b6c00808f520015003a000404e000030032007c
:103b7c00e24f520011003a0004003700324090002e
:103b8c000018a3000d003a001900370032409000d5
:103b9c000018a30009003a00324090000048a3002e
:103bac0006003a00c57aec0051ac21009140780037
:103bbc00c4dabf0080cf50000b003e001201780029
:103bcc000200e000e3ff3a00930178000300e000fc
:103bdc0009003200230090000000e000faff3200e0
:103bec0020019000f6ff3700c5dabf00c4fab70019
:103bfc0042d6880010000500000005000041780046
:103c0c00e94f500011003a00c0dabf0047c0210054
:103c1c000048a30001003a0007c02100c0dabf0031
:103c2c004400de00610060000004a2004400dd00de
:103c3c0001ac2100914078000144a10080c07000cb
:103c4c0001007800c0fab70025003700c0dabf00c9
:103c5c00c7c021000058a30001003a0087c0210012
:103c6c00c0dabf004500de00610060000004a20065
:103c7c004500dd0001ac2100914078000154a10009
:103c8c0080c0700001007800c0fab700ed4f510001
:103c9c0013003a0046d6800076009000060a900089
:103cac00960a90004601900001002000040050008c
:103cbc008580580003002000820f5000838f58002d
:103ccc0002003600c60190001d00370076019000fe
:103cdc0006089000960890008001510018003700eb
:103cec0046d680003658900063406000e14f50008b
:103cfc000b00320056009000e6009000060a90007f
:103d0c00960a9000460190000400500085805800ef
:103d1c0003002000820f5000838f580002003600f1
:103d2c00c60190002e00370056019000e60190006d
:103d3c00060890009608900080015100280037007a
:103d4c00260b9000960398000e003700b6089000e2
:103d5c00360890001040900062c0b3000440bc00d4
:103d6c0066014100e280780091039800050037005d
:103d7c00360990000608900096089000000141005a
:103d8c00920398000040eb00904398008300780069
:103d9c00f13fb20000c02f00970b6000978b7000b2
:103dac0041d68000314090004300de00610060008d
:103dbc004e00dd0017e0a100970b70003140900021
:103dcc004200de00610060004b00dd0017b0a10076
:103ddc00970b700000002800970b70000000060085
:103dec003658900063406000e14f5000e0ff3a000d
:103dfc00d6ff370000427800c0dabf00d3cdb30045
:103e0c000008a30001003a00d3c5b30042d68000dd
:103e1c00325890006340600001003a000344a10056
:103e2c003258900063406000e14f500001003a00ae
:103e3c000304a1000380fb0050258800b4dabf0006
:103e4c000080fb00b02488000180fb004400dd00f2
:103e5c0084007800f107b20001007000f0248800a3
:103e6c00c29aa80000000600889fbe008a9fbe0070
:103e7c0030d68000c2dabf000048a30070013a00bf
:103e8c00c2dabf008005eb000008a300da003a009c
:103e9c000040eb001aff07000000e000d0003200e9
:103eac0043d680000358900080007800010fb200c8
:103ebc0000022000808f5000100032007000400083
:103ecc00808f50004a003200f08f500055013a00ac
:103edc00035890006f006000e10f50006600320044
:103eec0003003c000000e000500032004d013700a0
:103efc00e20f50006f0032000c00370003589000a6
:103f0c006f006000e20f50000b00320005003c0017
:103f1c000000e00045003200e10f500041013a0082
:103f2c005c003700e30f500062003200ef0f5000ce
:103f3c003c013a00080037000308900093089000f9
:103f4c00d0019800e1019800334090000034a000ab
:103f5c00b0419800400037000040eb0080599800b9
:103f6c00334090000014a000b0419800f0d38000c2
:103f7c00e30f50009c003c000000e800f0d38800e8
:103f8c00d0d38000e20f500003003c000000e8009a
:103f9c00d0d38800010037007a3aef00d0d38000ec
:103fac006c00b90002a8210000014100f0ff2700bd
:103fbc00000978006000b8001001980021019800f9
:103fcc000000eb0030019800c35890001149980094
:103fdc00a358900001499800b358900021499800cb
:103fec009359900033499800800578008100370080
:103ffc00035890006f006000e20f50001e0032006a
:10400c0005003c000000e00008003200e10f500009
:10401c0004013a0010003700e30f50002500320075
:10402c00ef0f5000ff003a0049003700334090007a
:10403c000034a100b0419800d0c0b300effe0700df
:10404c0040d6800020589000d1c0b30069ff070013
:10405c00c21aa800fa00370010c0b300e7fe070030
:10406c0040d680002058900011c0b30061ff0700bb
:10407c00c21aa800f20037000308900093089000c1
:10408c00d0019800e1019800334090000034a0006a
:10409c00b041980090c0b300d8fe070040d6800015
:1040ac002058900091c0b30052ff0700c21aa8001c
:1040bc00e30037000040eb0080599800334090003b
:1040cc000014a000b0419800f0d38000e30f500022
:1040dc0045003c000000e800f0d38800d0d38000fd
:1040ec00e20f500003003c000000e800d0d3880031
:1040fc00010037007a3aef00d0d380006c00b90091
:10410c0002a82100000141002007200000097800ce
:10411c00030890009308900010019800210198006a
:10412c00b3089000310198000040eb001049980052
:10413c002358900000499800b358900021499800ea
:10414c0093599000334998008005eb002900370003
:10415c000040eb0080599800334090000014a00000
:10416c00b0419800f0d38000e30f50001e003c00db
:10417c000000e800f0d38800d0d38000e20f50009c
:10418c0003003c000000e800d0d388000100370099
:10419c007a3aef00d0d380006c00b90002a821005d
:1041ac0000014100f0ff2700000978006000b80012
:1041bc0010019800210198000000eb0030019800dc
:1041cc00c358900011499800a358900001499800d9
:1041dc00b3589000214998009359900033499800a6
:1041ec00800578000300370080c0b300b0599800f8
:1041fc008005eb00c21aa800c2dabf000038a30089
:10420c008f003a000044eb0009a821008ac0b300db
:10421c0020c0b3003afe07000000e0007800320036
:10422c0044d680000458900080007800010fb20042
:10423c0000082000808f5000040032007000400005
:10424c00808f500069003a000f003700045890002e
:10425c006f006000e10f50001a003200ef0f5000a9
:10426c003b0032000000e00060003a0090c0b30058
:10427c0062fe070040d680002058900091c0b30029
:10428c00dcfe07006e003700045890006f006000e1
:10429c00e10f50000b003200ef0f50002c003200e9
:1042ac000000e00051003a0010c0b30053fe0700bc
:1042bc0040d680002058900011c0b300cdfe0700fe
:1042cc005f003700085a9800344090000014a0009a
:1042dc0030429800f0d38000e30f50003f003c00c8
:1042ec000000e800f0d38800d0d38000e20f50002b
:1042fc0003003c000000e800d0d388000100370028
:10430c007a3aef00d0d380006c00b90000804400f2
:10431c0022072000020878000409900094099000fc
:10432c001200980023009800b40990003300980004
:10433c0018489800a45890000148980034599000ef
:10434c002248980094599000334898002400370074
:10435c00085a9800344090000014a0003042980095
:10436c00f0d38000e30f50001c003c000000e8007c
:10437c00f0d38800d0d38000e20f500003003c0043
:10438c000000e800d0d38800010037007a3aef0033
:10439c00d0d380006c00b90000804400f2ff2700ed
:1043ac00020878006011b8001200980023009800f1
:1043bc000001eb0032009800c4589000114898009e
:1043cc002459900002489800b45990002348980052
:1043dc009458900031489800010037003a5a9800e0
:1043ec000b00e00002003a00050037001b00200023
:1043fc00085a9800344090000014a00030429800f5
:10440c00c55ae20005003200c47aef00c2dabf00e0
:10441c000038a3000a003a007dff3700c27aa800da
:10442c00070037000040eb008059980033409000a3
:10443c000014a000b04198001b0020006dff370055
:10444c004f05be004f04be0000000600889fbe0052
:10445c008a9fbe008c9fbe008e1f7800804678001d
:10446c000106780082047800e8d580000800e0009e
:10447c000f003200611db8008eae21007840900014
:10448c00a2c0b3000440bc0064014100e2017f0003
:10449c000a02be00090178008c0078000d407800fb
:1044ac0003000100180478000800e000f3ff3a0054
:1044bc004f0778004f06be004f05be004f04be00ec
:1044cc00000006003600f800809fbe00829fbe00f0
:1044dc00849fbe00869fbe008ec0a90082c4bf0010
:1044ec000068a3000c00320080c4bf000068a30069
:1044fc00090032000004200000248800ca1ae200df
:10450c0005003200ca3aed00ca1ae20002003a0075
:10451c0082c4a900c63aec008cc4bf000068a3009a
:10452c000c0032008ac4bf000068a30009003200ee
:10453c008cc4a900000420005024880031d68000cf
:10454c0070005000808f500002003a0000102000d4
:10455c00b0d388008cc4bf000008a3000700320051
:10456c008ac4bf000008a300040032001000200021
:10457c00502488008c04a900763aef008cc4bf004c
:10458c000038a300d20032008ac4bf000038a30058
:10459c00cf0032008cc4bf000018a300080032000a
:1045ac008ac4bf000018a3000500320040d680006a
:1045bc003058900063406000e14f5000c4003a0056
:1045cc00c29aa90092248000800020005024880008
:1045dc0044d68000a4589000f0248000ef80600046
:1045ec006f006000808f5000b8003a000200780025
:1045fc000238a30005003200c2c021000028a3002d
:10460c0006003a0082c021000400370042c021009d
:10461c000028a30001003a0002c0210000c02300c2
:10462c009200600000802000808f50002c003a0027
:10463c00f03f2000120160000408900094089000e4
:10464c0002004000e0804800000a9800110a98001f
:10465c000000eb00700a9800344090004300de002c
:10466c00610060000004a2004300dd00b440900033
:10467c000134a10080c070003142980004589000b1
:10468c00f04f5000080032008458900000c2b30074
:10469c0080cf5000040032008458900070404000dd
:1046ac0080cf500027003a00040990009409900034
:1046bc007400900001002000800f5100818f590080
:1046cc00820039006000b800000a9800110a9800b6
:1046dc00045890000040e800005a98007b00370016
:1046ec0000c02000808f50000300320000c0220068
:1046fc00808f500022003a00f03f20001201600031
:10470c00040890009408900002004000e0804800eb
:10471c00000a9800110a98000000eb00700a98003b
:10472c00344090004300de00610060000004a200f1
:10473c004300dd00b44090000134a10080c0700043
:10474c00314298003458900063406000e14f5000b3
:10475c002f00320044009000800f51002c003900d3
:10476c00040990009409900054009000e40090001b
:10477c00800f5100818f59005400390024003700fc
:10478c0000802200808f500028003a0034409000b6
:10479c000044a00030429800740890000000e8002b
:1047ac00700a98003458900063006000e10f5000cc
:1047bc001700320003003c000000e000080032004b
:1047cc0042003700e20f500005003200e30f5000aa
:1047dc003e003a00245890000004e0000c00350024
:1047ec00344090000058a30038003200f4089000c8
:1047fc0004109000808f500034003600244090004c
:10480c000064a0002042980070c1b3000e00370075
:10481c00344090000004a0003042980004589000ee
:10482c000040e800005a9800280037000080230060
:10483c00808f50000b003a00244090000054a000e0
:10484c002042980010c1b300405a980004589000c0
:10485c0001cfb30001406000f040b300005a980053
:10486c001a003700a44090008140e800ffc06000af
:10487c002440900002ceb300024060000140700062
:10488c0020429800244090007f006000f30f5000fd
:10489c000e003400244090000064a00020429800d8
:1048ac0030c1b300405a98000458900001cfb300b7
:1048bc0001406000f040b300005a9800f00f200057
:1048cc0070248800200020005024880066fd07001a
:1048dc008cc4bf000028a3002c0032008ac4bf0087
:1048ec000028a3002900320040002000502488003a
:1048fc00e3d580000300e0001e003200230090008e
:10490c000000e00018003200a00090000100e00060
:10491c00150032000230200005102000f4ceb30048
:10492c005108900002006000820f5000020032001b
:10493c00850f500006003a00310090000000e000a6
:10494c0003003200310090000000e900b000980034
:10495c003140900004406000b04098009100780015
:10496c000100e000eeff3a00930178000300e00044
:10497c00e2ff3a00c21aa900c23aa900c25aa90021
:10498c00c27aa900c47aef0037fd07008cc4bf00bf
:10499c000018a300430032008ac4bf000018a30013
:1049ac0040003200c29aa90043d6800033589000d0
:1049bc0063406000e14f500036003200a34090008d
:1049cc008140e800ffc060002340900002ceb3009d
:1049dc000240600001407000a0419800234090000c
:1049ec007f006000f30f50002a0034008e44e20078
:1049fc0002003d0000c2b300c05998008ec4bf0035
:104a0c000058a3000200320010c2b300c059980035
:104a1c008ec4bf000048a3000200320020c2b300c5
:104a2c00c05998008ec4bf000038a30002003200a9
:104a3c0030c2b300c05998008ec4bf000028a30038
:104a4c000200320040c2b300c05998008ec4bf00af
:104a5c000018a3000200320050c2b300c0599800e5
:104a6c008ec4bf000008a3000200320060c2b30075
:104a7c00c0599800234090000064a000a041980009
:104a8c000358900001cfb30001406000f040b30028
:104a9c0080599800f00f200070248800200020001e
:104aac00502488004f03be004f02be004f01be00d1
:104abc004f00be003600f90000400600c10a20007d
:104acc009140780082cfb30082c060000104a00046
:104adc008000fd00ace0b7008000fd008600a9005e
:104aec0001242800311088000080fb005010880041
:104afc009600a800000006002107200000262c00cc
:104b0c0005ef070007ef3700881f78000044780096
:104b1c0017ef070016c2bf000008a300fdff3a0004
:104b2c008a40a9000840780013ef0700fdee07004b
:104b3c0019c2bf000000fb000080ea004f00de003d
:104b4c004f04780000000600889fbe0001447800e6
:104b5c008244780006ef070016c2bf000008a300cd
:104b6c00fdff3a008a40a90000cab30002ef07001b
:104b7c00ecee070008407800ffee0700e9ee0700b6
:104b8c0009407800fcee0700e6ee070004ef070092
:104b9c0016c2bf000028a300fdff3a00a8cfb30047
:104bac0000cab300d8ff0700e14f500002003200ea
:104bbc000844e900faff3a00100020004f04be0040
:104bcc0000000600881f780001447800e8ee07001a
:104bdc0016c2bf000008a300fdff3a008a40a900de
:104bec0000cab300e4ee0700ceee070008407800e0
:104bfc00e1ee0700cbee0700e9ee0700c9ee070077
:104c0c00dbee070016c2bf000008a300fdff3a0050
:104c1c008a40a90010cab300d7ee0700c1ee070006
:104c2c00e1ee070000447800beee0700dcee070062
:104c3c0016c2bf000028a300fdff3a000880fb004d
:104c4c004f047800000006003132800040852400bb
:104c5c00808f50001100320001a62e00c482a800e3
:104c6c00820020000000eb000000e800810f5000e3
:104c7c00fdff3a000201e900faff3a00c482a900e4
:104c8c0000a62e000000e900feff3a000201e80039
:104c9c00e80f5100faff3a00f0ff37000000060061
:104cac000004e00004003a0009fbb700c482a9002c
:104cbc00cca2a90000000600e14f500004003a000d
:104ccc00097bef00dd59e2000500320008003700d7
:104cdc00dd59e20004003a0010c0b30009fbb70034
:104cec00c482a8000000060020c0b30009fbb70076
:104cfc00cca2a80000000600ebd9bf000080fb008e
:104d0c0001002000ed0f5000e08f580084003e00a1
:104d1c0000600100160037001e0037002600370027
:104d2c002e0037003600370049003700520037009c
:104d3c005b003700650037006f00370078003700e4
:104d4c00770037003800370000003700004b200098
:104d5c0030cf8800e839ef000001200010cf880028
:104d6c00e439ef00de39ef00e039ef000000060017
:104d7c000096200030cf8800e839ef0000012000b9
:104d8c0010cf8800e439ef00de39ef00e039ef0096
:104d9c0000000600002c210030cf8800e839ef001d
:104dac000001200010cf8800e439ef00de39ef005d
:104dbc00e039ef00000006000058220030cf8800d8
:104dcc00e839ef000001200010cf8800e439ef0033
:104ddc00de39ef00e039ef0000000600008423000c
:104dec0030cf8800e839ef000001200010cf880098
:104dfc00e439ef00de39ef00e039ef000000060087
:104e0c0000b0240030cf8800e839ef0040002000cb
:104e1c0010cf8800e439ef0010002000f0ce88009d
:104e2c00e039ef000000060020a1270030cf8800f9
:104e3c00e839ef004000200010cf8800e439ef0083
:104e4c0010002000f0ce8800e039ef0000000600d2
:104e5c000060290030cf8800e839ef0040002000c6
:104e6c0010cf8800e439ef0010002000f0ce88004d
:104e7c00e039ef000000060000102e0030cf880053
:104e8c00e839ef004000200010cf8800e439ef0033
:104e9c0010002000f0ce8800e039ef000000060082
:104eac0000202c0030cf88001000200040cf88005c
:104ebc004000200010cf8800e439ef0010002000e3
:104ecc00f0ce8800e039ef0000000600004028001a
:104edc0030cf88003000200040cf880040002000f8
:104eec0010cf8800e439ef0010002000f0ce8800cd
:104efc00e039ef00000006000080200030cf880071
:104f0c007000200040cf88004000200010cf8800a7
:104f1c00e439ef0010002000f0ce8800e039ef00fb
:104f2c00000006000080fb0001002000ed0f500087
:104f3c00e08f580029003e00006001000f00370090
:104f4c001000370011003700120037001300370033
:104f5c00160037001700370018003700190037000b
:104f6c001a0037001d0037001a0037000d003700fb
:104f7c0000003700805a280068103700f05a2800cb
:104f8c0066103700605b280064103700d05b280087
:104f9c0062103700405c280060103700b05c2800bd
:104fac005e103700205d28005c103700905d2800f3
:104fbc005a103700005e280058103700705e280029
:104fcc0056103700e05e280054103700505f280060
:104fdc0052103700c05f2800501007000000060078
:104fec00e14f50000600320003003900e24f500040
:104ffc0007003a00040037003060280047103700e3
:10500c007060280045103700b0602800431007007e
:10501c0000000600a2cab3008040eb0001407800fb
:10502c00c9fe0700b29e21001241780011c0b300e6
:10503c000040eb00c4fe0700c29e21001241780024
:10504c0021c0b3000040eb00bffe0700d29e210040
:10505c001241780031c0b3000040eb00bafe0700eb
:10506c0072cf80004811de0041c0b3000040eb005d
:10507c00b5fe0700e29e21001241780051c0b3003a
:10508c000040eb00b0fe070082cf80004811de002c
:10509c0061c0b3000040eb00abfe0700029f210093
:1050ac001241780071c0b3000040eb00a6fe07006f
:1050bc0092cf80004811de00a1c0b3000040eb008d
:1050cc00a1fe0700229f210012417800b1c0b3005d
:1050dc000040eb009cfe0700a2cf80004811de00d0
:1050ec00c1c0b3000040eb0097fe0700429f2100b7
:1050fc0012417800d1c0b3000040eb0092fe0700d3
:10510c00629f21001241780091c0b3000040eb0077
:10511c008dfe0700729f210012417800e1c0b300a0
:10512c000040eb0088fe0700829f210012417800ae
:10513c00f1c0b3000040eb0083fe0700929f2100fa
:10514c001241780001c1b3000040eb007efe070065
:10515c00a29f21001241780011c1b3000040eb0066
:10516c0079fe0700b29f21001241780021c1b300e3
:10517c000040eb0074fe0700c29f21001241780032
:10518c0031c1b3000040eb006ffe0700d29f21003d
:10519c001241780041c1b3000040eb006afe0700e9
:1051ac00e29f21001241780051c1b3000040eb0096
:1051bc0065fe0700f29f21001241780061c1b30027
:1051cc000040eb0060fe070002a0210012417800b5
:1051dc0071c1b3000040eb005bfe070012a0210080
:1051ec001241780081c1b3000040eb0056fe07006d
:1051fc0022a021001241780091c1b3000040eb00c5
:10520c0051fe070032a0210012417800a1c1b30069
:10521c000040eb004cfe070042a021001241780038
:10522c0011c2b3000040eb0047fe070052a0210062
:10523c0012417800b1c1b3000040eb0042fe070000
:10524c0062a0210012417800c1c1b3000040eb0004
:10525c003dfe070072a0210012417800d1c1b300bd
:10526c000040eb0038fe070082a0210012417800bc
:10527c00e1c1b3000040eb0033fe070092a0210017
:10528c0012417800f1c1b3000040eb002efe070084
:10529c00a2a021001241780001c2b3000040eb0033
:1052ac0029fe0700b2a0210012417800c1c1b30051
:1052bc000040eb0024fe0700c2a021001241780040
:1052cc00d1c1b3000040eb001ffe0700d2a02100ab
:1052dc0012417800e1c1b3000040eb001afe070058
:1052ec00e2a0210012417800f1c1b3000040eb00b4
:1052fc0015fe0700f2a021001241780001c2b30094
:10530c000040eb0010fe070002a1210012417800c2
:10531c0021c2b3000040eb000bfe070012a12100dc
:10532c001241780031c2b3000040eb0006fe0700ca
:10533c0022a121001241780041c2b3000040eb00d1
:10534c0001fe070032a121001241780051c2b300c6
:10535c000040eb00fcfd070042a121001241780047
:10536c0061c2b3000040eb00f7fd070052a1210021
:10537c001241780071c2b3000040eb00f2fd07004f
:10538c0062a121001241780081c2b3000040eb0001
:10539c00edfd070072a121001241780091c2b3000b
:1053ac000040eb00e8fd070082a1210012417800cb
:1053bc00a1c2b3000040eb00e3fd070092a1210065
:1053cc0012417800b1c2b3000040eb00defd0700d3
:1053dc00a2a1210012417800c1c2b3000040eb0031
:1053ec00d9fd0700b2a1210012417800d1c2b3004f
:1053fc000040eb00d4fd0700c2a12100124178004f
:10540c00e1c2b3000040eb00cffd0700d2a12100a8
:10541c0012417800f1c2b3000040eb00cafd070056
:10542c00e2a121001241780001c3b3000040eb005f
:10543c00c5fd0700f2a121001241780011c3b30091
:10544c000040eb00c0fd370022c0b3000200780022
:10545c00ebf9b700ecf9ef0090c2b300edf9b7002f
:10546c00f00f200070cf880080cf88008001eb0007
:10547c0093cf8800a3cf8800a0c0b300f6f9b70083
:10548c0011c0b30001007800f7f9b70003007800f1
:10549c00f8f9b70001007800f9f9b70003007800bb
:1054ac00faf9b700b0c1b300fbf9b70003007800fc
:1054bc00fcf9b70001007800fdf9b7000200780094
:1054cc00fef9b70050c0b300fff9b70000fab700ff
:1054dc008001fd0001fab70002fab70003fab70029
:1054ec008001fd00cb42e20003003d000300780088
:1054fc0004fab7000200370010c0b30004fab7007a
:10550c008040eb008000fd0005fab70006fab700fa
:10551c0007fab70008fab70009fab7008000fd00d7
:10552c008000fd000afab7000bfab7000cfab700be
:10553c000dfab7000efab7008000fd0020c0b300d2
:10554c000ffab7008000fd0010fab70011fab7008f
:10555c008000fd0000cab30012fab70010c0b300ff
:10556c0013fab7008000fd0014fab70015fab70063
:10557c008000fd0016fab70017fab7008000fd0096
:10558c0018fab70019fab7008000fd001afab70034
:10559c0000c0eb001bfab7001cfab7001dfab700ed
:1055ac001efab700010078001ffab70000000600d1
:1055bc00b09e2100c1c0b30090cf10000200360095
:1055cc0020c0b300ebf9b700709f210011c0b300ed
:1055dc0090cf10000200360001007800f7f9b700f8
:1055ec00809f210011c0b30090cf10000200360044
:1055fc0001007800f8f9b700909f210021c0b3009a
:10560c0090cf10000200360010c0b300f9f9b700bb
:10561c00a09f210021c0b30090cf100001003600e4
:10562c00fa79ef00b09f210080c0eb0090cf100002
:10563c0002003a00b0c1b300fbf9b700c09f2100d3
:10564c0080c0eb0090cf100001003a00fc79ef0015
:10565c00d09f210011c0b30090cf10000100360084
:10566c00fd79ef00e09f2100b1c0b30090cf100096
:10567c000200360020c0b300fef9b700f09f2100f5
:10568c00e1c1b30090cf1000020036000100780099
:10569c00fff9b700ff59e20002003a0050c0b30016
:1056ac00fff9b70000a0210041c1b30090cf10005a
:1056bc00020036000100780000fab700005ae20040
:1056cc0002003a0040c1b30000fab70010a021005c
:1056dc0011c0b30090cf100001003600017aef002a
:1056ec0020a0210011c0b30090cf100001003600a3
:1056fc00027aef0030a0210011c0b30090cf10004f
:10570c0001003600037aef00c0a0210021c0b300d5
:10571c0090cf1000010036000c7aef0040a0210061
:10572c0011c0b30090cf100001003600047aef00d6
:10573c0030a1210011c0b30090cf10000100360041
:10574c00137aef0040a1210001c1b30090cf1000eb
:10575c0001003600147aef0050a1210011c0b300f3
:10576c0090cf100001003600157aef0060a12100e7
:10577c0011c0b30090cf1000020036000100780079
:10578c0016fab70070a1210021c0b30090cf100011
:10579c000200360010c0b30017fab700175ae20027
:1057ac0002003a0010c0b30017fab70080a1210024
:1057bc0011c0b30090cf100001003600187aef0032
:1057cc0090a1210021c0b30090cf10000100360041
:1057dc00197aef00a0a1210011c0b30090cf1000e6
:1057ec0002003600010078001afab700f0a121007f
:1057fc0011c0b30090cf1000010036001f7aef00eb
:10580c0000000600881f780011c0b3000040eb00b8
:10581c00ecfc0700ebf9b70021c0b3000040eb0033
:10582c00e8fc0700ecf9b70031c0b3000040eb0016
:10583c00e4fc0700edf9b70041c0b3000040eb00f9
:10584c00e0fc07004804dd0078cf880051c0b300ad
:10585c000040eb00dbfc07000080fb000000440074
:10586c0070cf880061c0b3000040eb00d5fc07008e
:10587c004804dd0088cf880071c0b3000040eb0005
:10588c00d0fc07000080fb000000440080cf8800a3
:10589c00a1c0b3000040eb00cafc07004804dd00c7
:1058ac0098cf8800b1c0b3000040eb00c5fc0700e6
:1058bc000080fb000000440090cf8800c1c0b30002
:1058cc000040eb00bffc07004804dd00a8cf8800b7
:1058dc00d1c0b3000040eb00bafc07000080fb0015
:1058ec0000004400a0cf880091c0b3000040eb0042
:1058fc00b4fc0700f6f9b700e1c0b3000040eb00c0
:10590c00b0fc0700f7f9b700f1c0b3000040eb00a2
:10591c00acfc0700f8f9b70001c1b3000040eb0084
:10592c00a8fc0700f9f9b70011c1b3000040eb0067
:10593c00a4fc0700faf9b70021c1b3000040eb004a
:10594c00a0fc0700fbf9b70031c1b3000040eb002d
:10595c009cfc0700fcf9b70041c1b3000040eb0010
:10596c0098fc0700fdf9b70051c1b3000040eb00f3
:10597c0094fc0700fef9b70061c1b3000040eb00d6
:10598c0090fc0700fff9b70071c1b3000040eb00b9
:10599c008cfc070000fab70081c1b3000040eb009b
:1059ac0088fc070001fab70091c1b3000040eb007e
:1059bc0084fc070002fab700a1c1b3000040eb0061
:1059cc0080fc070003fab70011c2b3000040eb00e3
:1059dc007cfc070004fab700b1c1b3000040eb0037
:1059ec0078fc070005fab700c1c1b3000040eb001a
:1059fc0074fc070006fab700d1c1b3000040eb00fd
:105a0c0070fc070007fab700e1c1b3000040eb00df
:105a1c006cfc070008fab700f1c1b3000040eb00c2
:105a2c0068fc070009fab70001c2b3000040eb00a4
:105a3c0064fc07000afab700c1c1b3000040eb00d8
:105a4c0060fc07000bfab700d1c1b3000040eb00bb
:105a5c005cfc07000cfab700e1c1b3000040eb009e
:105a6c0058fc07000dfab700f1c1b3000040eb0081
:105a7c0054fc07000efab70001c2b3000040eb0063
:105a8c0050fc07000ffab70021c2b3000040eb0036
:105a9c004cfc070010fab70031c2b3000040eb0019
:105aac0048fc070011fab70041c2b3000040eb00fc
